:020000020000FC
:100000003F065B4F666D7D077F6F777C395E797148
:100010000FEF0DBF08E00EBF00E80093610004E0A1
:10002000009361000E944E000FEF04B900E005B993
:100030000FEF0AB900E00BB900E007B90FEF08B9FC
:1000400030E051E081E0A0E0B0E0A0E0B0E0FD01F0
:1000500004910BB90E9491000E9433000E9453004A
:100060000E945700F7CF05B300FFFDCFA89A0AE022
:1000700006BD513081F023952436A9F72227339508
:1000800043954A3021F440E005B1082705B93031E5
:1000900019F430E00895089535B9089503E005BDD9
:1000A00000E006BD0895309B0E945B000895319BDF
:1000B0000E94730008950E94A20030990895EFE015
:1000C000F0E0AE17BF0721F4A0E0B0E051E002C0BD
:1000D00011965395FD0104910E948C00089551E002
:1000E00008955FE008950E94A20031990895E0E02C
:1000F000F0E0AE17BF0721F4AFE0B0E050E102C07E
:1001000011975A95FD0104910E94870008950BB93B
:100110000895319BFECF08950BB90895309BFECF13
:100120000895503011F42C9A08955A95531729F4D4
:100130002C9A5395332722270895539508952C9A86
:100140003327089505E0309908950A95E1F7089559
:00000001FF
